S00D00006D757369632E73726563F6
S11300000C9434000C943E000C943E000C943E007E
S11300100C943E000C943E000C943E000C943E0064
S11300200C943E000C943E000C943E000C943E0054
S11300300C943E000C943E000C943E000C943E0044
S11300400C943E000C943E000C943E000C943E0034
S11300500C943E000C943E000C943E000C943E0024
S11300600C943E000C943E0011241FBECFEFD8E048
S1130070DEBFCDBF0E9440000C9466000C940000CB
S1130080259A88EE93E02D9AEFECF7E03197F1F79B
S113009000C000002D98EFECF7E03197F1F700C0B5
S11300A00000019781F780ED97E02D9AE7EEF3E0E9
S11300B03197F1F700C000002D98E7EEF3E0319797
S11300C0F1F700C00000019781F7DBCFF894FFCF70
S9030000FC
